{
  "contractName": "Dao",
  "abi": [
    {
      "inputs": [
        {
          "internalType": "bytes32[]",
          "name": "proposalNames",
          "type": "bytes32[]"
        }
      ],
      "stateMutability": "nonpayable",
      "type": "constructor"
    },
    {
      "inputs": [],
      "name": "balance",
      "outputs": [
        {
          "internalType": "uint256",
          "name": "",
          "type": "uint256"
        }
      ],
      "stateMutability": "view",
      "type": "function",
      "constant": true
    },
    {
      "inputs": [],
      "name": "chairperson",
      "outputs": [
        {
          "internalType": "address",
          "name": "",
          "type": "address"
        }
      ],
      "stateMutability": "view",
      "type": "function",
      "constant": true
    },
    {
      "inputs": [
        {
          "internalType": "address",
          "name": "",
          "type": "address"
        }
      ],
      "name": "members",
      "outputs": [
        {
          "internalType": "uint256",
          "name": "weight",
          "type": "uint256"
        },
        {
          "internalType": "bool",
          "name": "voted",
          "type": "bool"
        },
        {
          "internalType": "address",
          "name": "delegate",
          "type": "address"
        },
        {
          "internalType": "uint256",
          "name": "vote",
          "type": "uint256"
        },
        {
          "internalType": "address",
          "name": "member",
          "type": "address"
        },
        {
          "internalType": "uint256",
          "name": "location",
          "type": "uint256"
        }
      ],
      "stateMutability": "view",
      "type": "function",
      "constant": true
    },
    {
      "inputs": [
        {
          "internalType": "uint256",
          "name": "",
          "type": "uint256"
        }
      ],
      "name": "members_list",
      "outputs": [
        {
          "internalType": "uint256",
          "name": "weight",
          "type": "uint256"
        },
        {
          "internalType": "bool",
          "name": "voted",
          "type": "bool"
        },
        {
          "internalType": "address",
          "name": "delegate",
          "type": "address"
        },
        {
          "internalType": "uint256",
          "name": "vote",
          "type": "uint256"
        },
        {
          "internalType": "address",
          "name": "member",
          "type": "address"
        },
        {
          "internalType": "uint256",
          "name": "location",
          "type": "uint256"
        }
      ],
      "stateMutability": "view",
      "type": "function",
      "constant": true
    },
    {
      "inputs": [],
      "name": "numberOfMembers",
      "outputs": [
        {
          "internalType": "uint256",
          "name": "",
          "type": "uint256"
        }
      ],
      "stateMutability": "view",
      "type": "function",
      "constant": true
    },
    {
      "inputs": [
        {
          "internalType": "uint256",
          "name": "",
          "type": "uint256"
        }
      ],
      "name": "proposals",
      "outputs": [
        {
          "internalType": "bytes32",
          "name": "name",
          "type": "bytes32"
        },
        {
          "internalType": "uint256",
          "name": "voteCount",
          "type": "uint256"
        },
        {
          "internalType": "address",
          "name": "reciever",
          "type": "address"
        }
      ],
      "stateMutability": "view",
      "type": "function",
      "constant": true
    },
    {
      "inputs": [],
      "name": "joinDao",
      "outputs": [],
      "stateMutability": "payable",
      "type": "function",
      "payable": true
    },
    {
      "inputs": [
        {
          "internalType": "address",
          "name": "member",
          "type": "address"
        }
      ],
      "name": "giveRightToVote",
      "outputs": [],
      "stateMutability": "nonpayable",
      "type": "function"
    },
    {
      "inputs": [],
      "name": "getMembers",
      "outputs": [
        {
          "internalType": "address[]",
          "name": "",
          "type": "address[]"
        }
      ],
      "stateMutability": "view",
      "type": "function",
      "constant": true
    },
    {
      "inputs": [
        {
          "internalType": "address",
          "name": "to",
          "type": "address"
        }
      ],
      "name": "delegate",
      "outputs": [],
      "stateMutability": "nonpayable",
      "type": "function"
    },
    {
      "inputs": [
        {
          "internalType": "uint256",
          "name": "proposal",
          "type": "uint256"
        }
      ],
      "name": "vote",
      "outputs": [],
      "stateMutability": "nonpayable",
      "type": "function"
    },
    {
      "inputs": [],
      "name": "winingProposal",
      "outputs": [
        {
          "internalType": "uint256",
          "name": "winingProposal_",
          "type": "uint256"
        }
      ],
      "stateMutability": "view",
      "type": "function",
      "constant": true
    },
    {
      "inputs": [],
      "name": "winnerName",
      "outputs": [
        {
          "internalType": "bytes32",
          "name": "winnerName_",
          "type": "bytes32"
        }
      ],
      "stateMutability": "view",
      "type": "function",
      "constant": true
    },
    {
      "inputs": [
        {
          "internalType": "bytes32[]",
          "name": "proposalNames",
          "type": "bytes32[]"
        }
      ],
      "name": "newProposal",
      "outputs": [],
      "stateMutability": "nonpayable",
      "type": "function"
    }
  ],
  "bytecode": "0x60806040523480156200001157600080fd5b5060405162001e3d38038062001e3d833981810160405260208110156200003757600080fd5b81019080805160405193929190846401000000008211156200005857600080fd5b838201915060208201858111156200006f57600080fd5b82518660208202830111640100000000821117156200008d57600080fd5b8083526020830192505050908051906020019060200280838360005b83811015620000c6578082015181840152602081019050620000a9565b50505050905001604052505050336000806101000a81548173ffffffffffffffffffffffffffffffffffffffff021916908373ffffffffffffffffffffffffffffffffffffffff16021790555060006040518060c0016040528060018152602001600015158152602001600073ffffffffffffffffffffffffffffffffffffffff168152602001600081526020013373ffffffffffffffffffffffffffffffffffffffff1681526020016000815250905080600360008060009054906101000a900473ffffffffffffffffffffffffffffffffffffffff1673ffffffffffffffffffffffffffffffffffffffff1673ffffffffffffffffffffffffffffffffffffffff1681526020019081526020016000206000820151816000015560208201518160010160006101000a81548160ff02191690831515021790555060408201518160010160016101000a81548173ffffffffffffffffffffffffffffffffffffffff021916908373ffffffffffffffffffffffffffffffffffffffff1602179055506060820151816002015560808201518160030160006101000a81548173ffffffffffffffffffffffffffffffffffffffff021916908373ffffffffffffffffffffffffffffffffffffffff16021790555060a082015181600401559050506005600360008060009054906101000a900473ffffffffffffffffffffffffffffffffffffffff1673ffffffffffffffffffffffffffffffffffffffff1673ffffffffffffffffffffffffffffffffffffffff1681526020019081526020016000209080600181540180825580915050600190039060005260206000209060050201600090919091909150600082015481600001556001820160009054906101000a900460ff168160010160006101000a81548160ff0219169083151502179055506001820160019054906101000a900473ffffffffffffffffffffffffffffffffffffffff168160010160016101000a81548173ffffffffffffffffffffffffffffffffffffffff021916908373ffffffffffffffffffffffffffffffffffffffff160217905550600282015481600201556003820160009054906101000a900473ffffffffffffffffffffffffffffffffffffffff168160030160006101000a81548173ffffffffffffffffffffffffffffffffffffffff021916908373ffffffffffffffffffffffffffffffffffffffff16021790555060048201548160040155505060005b82518110156200053657600460405180606001604052808584815181106200047457fe5b60200260200101518152602001600081526020013373ffffffffffffffffffffffffffffffffffffffff168152509080600181540180825580915050600190039060005260206000209060030201600090919091909150600082015181600001556020820151816001015560408201518160020160006101000a81548173ffffffffffffffffffffffffffffffffffffffff021916908373ffffffffffffffffffffffffffffffffffffffff1602179055505050808060010191505062000450565b50600160028190555050506118ec80620005516000396000f3fe6080604052600436106100dd5760003560e01c80639e7b8d611161007f578063b69ef8a811610059578063b69ef8a8146104b0578063dd61fc89146104db578063e2ba53f0146104e5578063ecf653b814610510576100dd565b80639e7b8d61146103c85780639eab525314610419578063a30e3fa914610485576100dd565b80632e4176cf116100bb5780632e4176cf14610246578063361d6d7c146102875780635c19a95c1461034c57806385bcdc0f1461039d576100dd565b80630121b93f146100e2578063013cf08b1461011d57806308ae4b0c14610190575b600080fd5b3480156100ee57600080fd5b5061011b6004803603602081101561010557600080fd5b81019080803590602001909291905050506105b0565b005b34801561012957600080fd5b506101566004803603602081101561014057600080fd5b810190808035906020019092919050505061074d565b604051808481526020018381526020018273ffffffffffffffffffffffffffffffffffffffff168152602001935050505060405180910390f35b34801561019c57600080fd5b506101df600480360360208110156101b357600080fd5b81019080803573ffffffffffffffffffffffffffffffffffffffff1690602001909291905050506107a7565b6040518087815260200186151581526020018573ffffffffffffffffffffffffffffffffffffffff1681526020018481526020018373ffffffffffffffffffffffffffffffffffffffff168152602001828152602001965050505050505060405180910390f35b34801561025257600080fd5b5061025b610830565b604051808273ffffffffffffffffffffffffffffffffffffffff16815260200191505060405180910390f35b34801561029357600080fd5b5061034a600480360360208110156102aa57600080fd5b81019080803590602001906401000000008111156102c757600080fd5b8201836020820111156102d957600080fd5b803590602001918460208302840111640100000000831117156102fb57600080fd5b919080806020026020016040519081016040528093929190818152602001838360200280828437600081840152601f19601f820116905080830192505050505050509192919290505050610854565b005b34801561035857600080fd5b5061039b6004803603602081101561036f57600080fd5b81019080803573ffffffffffffffffffffffffffffffffffffffff169060200190929190505050610c03565b005b3480156103a957600080fd5b506103b261101f565b6040518082815260200191505060405180910390f35b3480156103d457600080fd5b50610417600480360360208110156103eb57600080fd5b81019080803573ffffffffffffffffffffffffffffffffffffffff16906020019092919050505061106c565b005b34801561042557600080fd5b5061042e6112bd565b6040518080602001828103825283818151815260200191508051906020019060200280838360005b83811015610471578082015181840152602081019050610456565b505050509050019250505060405180910390f35b34801561049157600080fd5b5061049a6113b6565b6040518082815260200191505060405180910390f35b3480156104bc57600080fd5b506104c56113bc565b6040518082815260200191505060405180910390f35b6104e36113c2565b005b3480156104f157600080fd5b506104fa611756565b6040518082815260200191505060405180910390f35b34801561051c57600080fd5b506105496004803603602081101561053357600080fd5b8101908080359060200190929190505050611783565b6040518087815260200186151581526020018573ffffffffffffffffffffffffffffffffffffffff1681526020018481526020018373ffffffffffffffffffffffffffffffffffffffff168152602001828152602001965050505050505060405180910390f35b6000600360003373ffffffffffffffffffffffffffffffffffffffff1673ffffffffffffffffffffffffffffffffffffffff168152602001908152602001600020905060008160000154141561066e576040517f08c379a00000000000000000000000000000000000000000000000000000000081526004018080602001828103825260108152602001807f4e6f20726967687420746f20766f74650000000000000000000000000000000081525060200191505060405180910390fd5b8060010160009054906101000a900460ff16156106f3576040517f08c379a000000000000000000000000000000000000000000000000000000000815260040180806020018281038252600d8152602001807f416c726561647920566f7465640000000000000000000000000000000000000081525060200191505060405180910390fd5b60018160010160006101000a81548160ff02191690831515021790555081816002018190555080600001546004838154811061072b57fe5b9060005260206000209060030201600101600082825401925050819055505050565b6004818154811061075d57600080fd5b90600052602060002090600302016000915090508060000154908060010154908060020160009054906101000a900473ffffffffffffffffffffffffffffffffffffffff16905083565b60036020528060005260406000206000915090508060000154908060010160009054906101000a900460ff16908060010160019054906101000a900473ffffffffffffffffffffffffffffffffffffffff16908060020154908060030160009054906101000a900473ffffffffffffffffffffffffffffffffffffffff16908060040154905086565b60008054906101000a900473ffffffffffffffffffffffffffffffffffffffff1681565b3373ffffffffffffffffffffffffffffffffffffffff1660008054906101000a900473ffffffffffffffffffffffffffffffffffffffff1673ffffffffffffffffffffffffffffffffffffffff16146108ac57600080fd5b6001600360008060009054906101000a900473ffffffffffffffffffffffffffffffffffffffff1673ffffffffffffffffffffffffffffffffffffffff1673ffffffffffffffffffffffffffffffffffffffff1681526020019081526020016000206000018190555060046000610923919061181c565b60005b8151811015610a09576004604051806060016040528084848151811061094857fe5b60200260200101518152602001600081526020013373ffffffffffffffffffffffffffffffffffffffff168152509080600181540180825580915050600190039060005260206000209060030201600090919091909150600082015181600001556020820151816001015560408201518160020160006101000a81548173ffffffffffffffffffffffffffffffffffffffff021916908373ffffffffffffffffffffffffffffffffffffffff16021790555050508080600101915050610926565b5060005b600580549050811015610bff57600160058281548110610a2957fe5b90600052602060002090600502016000018190555060058181548110610a4b57fe5b90600052602060002090600502016003600060058481548110610a6a57fe5b906000526020600020906005020160030160009054906101000a900473ffffffffffffffffffffffffffffffffffffffff1673ffffffffffffffffffffffffffffffffffffffff1673ffffffffffffffffffffffffffffffffffffffff168152602001908152602001600020600082015481600001556001820160009054906101000a900460ff168160010160006101000a81548160ff0219169083151502179055506001820160019054906101000a900473ffffffffffffffffffffffffffffffffffffffff168160010160016101000a81548173ffffffffffffffffffffffffffffffffffffffff021916908373ffffffffffffffffffffffffffffffffffffffff160217905550600282015481600201556003820160009054906101000a900473ffffffffffffffffffffffffffffffffffffffff168160030160006101000a81548173ffffffffffffffffffffffffffffffffffffffff021916908373ffffffffffffffffffffffffffffffffffffffff160217905550600482015481600401559050508080600101915050610a0d565b5050565b6000600360003373ffffffffffffffffffffffffffffffffffffffff1673ffffffffffffffffffffffffffffffffffffffff16815260200190815260200160002090508060010160009054906101000a900460ff1615610ccb576040517f08c379a00000000000000000000000000000000000000000000000000000000081526004018080602001828103825260128152602001807f596f7520616c726561647920566f74656421000000000000000000000000000081525060200191505060405180910390fd5b3373ffffffffffffffffffffffffffffffffffffffff168273ffffffffffffffffffffffffffffffffffffffff161415610d6d576040517f08c379a000000000000000000000000000000000000000000000000000000000815260040180806020018281038252601a8152602001807f53656c662044656c65676174696f6e20446973616c6c6f77656400000000000081525060200191505060405180910390fd5b5b600073ffffffffffffffffffffffffffffffffffffffff16600360008473ffffffffffffffffffffffffffffffffffffffff1673ffffffffffffffffffffffffffffffffffffffff16815260200190815260200160002060010160019054906101000a900473ffffffffffffffffffffffffffffffffffffffff1673ffffffffffffffffffffffffffffffffffffffff1614610f1057600360008373ffffffffffffffffffffffffffffffffffffffff1673ffffffffffffffffffffffffffffffffffffffff16815260200190815260200160002060010160019054906101000a900473ffffffffffffffffffffffffffffffffffffffff1691503373ffffffffffffffffffffffffffffffffffffffff168273ffffffffffffffffffffffffffffffffffffffff161415610f0b576040517f08c379a00000000000000000000000000000000000000000000000000000000081526004018080602001828103825260188152602001807f466f756e64206c6f6f7020696e2064656c65676174696f6e000000000000000081525060200191505060405180910390fd5b610d6e565b60018160010160006101000a81548160ff021916908315150217905550818160010160016101000a81548173ffffffffffffffffffffffffffffffffffffffff021916908373ffffffffffffffffffffffffffffffffffffffff1602179055506000600360008473ffffffffffffffffffffffffffffffffffffffff1673ffffffffffffffffffffffffffffffffffffffff16815260200190815260200160002090508060010160009054906101000a900460ff16156110035781600001546004826002015481548110610fe057fe5b90600052602060002090600302016001016000828254019250508190555061101a565b816000015481600001600082825401925050819055505b505050565b6000806000905060005b600480549050811015611067576004818154811061104357fe5b90600052602060002090600302016001015491508092508080600101915050611029565b505090565b60008054906101000a900473ffffffffffffffffffffffffffffffffffffffff1673ffffffffffffffffffffffffffffffffffffffff163373ffffffffffffffffffffffffffffffffffffffff1614611110576040517f08c379a000000000000000000000000000000000000000000000000000000000815260040180806020018281038252602881526020018061188f6028913960400191505060405180910390fd5b600360008273ffffffffffffffffffffffffffffffffffffffff1673ffffffffffffffffffffffffffffffffffffffff16815260200190815260200160002060010160009054906101000a900460ff16156111d3576040517f08c379a000000000000000000000000000000000000000000000000000000000815260040180806020018281038252601d8152602001807f546865206d656d6265722068617320616c726561647920766f7465642e00000081525060200191505060405180910390fd5b6000600360008373ffffffffffffffffffffffffffffffffffffffff1673ffffffffffffffffffffffffffffffffffffffff168152602001908152602001600020600001541461122257600080fd5b6000600360008373ffffffffffffffffffffffffffffffffffffffff1673ffffffffffffffffffffffffffffffffffffffff16815260200190815260200160002060040154141561127257600080fd5b6001600360008373ffffffffffffffffffffffffffffffffffffffff1673ffffffffffffffffffffffffffffffffffffffff1681526020019081526020016000206000018190555050565b6060600060025467ffffffffffffffff811180156112da57600080fd5b506040519080825280602002602001820160405280156113095781602001602082028036833780820191505090505b50905060005b6005805490508110156113ae576005818154811061132957fe5b906000526020600020906005020160030160009054906101000a900473ffffffffffffffffffffffffffffffffffffffff1682828151811061136757fe5b602002602001019073ffffffffffffffffffffffffffffffffffffffff16908173ffffffffffffffffffffffffffffffffffffffff1681525050808060010191505061130f565b508091505090565b60025481565b60015481565b60c8341015611439576040517f08c379a00000000000000000000000000000000000000000000000000000000081526004018080602001828103825260198152602001807f636f7272656374416d6f756e744e6f744465706f73697465640000000000000081525060200191505060405180910390fd5b60006040518060c0016040528060008152602001600015158152602001600073ffffffffffffffffffffffffffffffffffffffff168152602001600081526020013373ffffffffffffffffffffffffffffffffffffffff168152602001600254815250905080600360003373ffffffffffffffffffffffffffffffffffffffff1673ffffffffffffffffffffffffffffffffffffffff1681526020019081526020016000206000820151816000015560208201518160010160006101000a81548160ff02191690831515021790555060408201518160010160016101000a81548173ffffffffffffffffffffffffffffffffffffffff021916908373ffffffffffffffffffffffffffffffffffffffff1602179055506060820151816002015560808201518160030160006101000a81548173ffffffffffffffffffffffffffffffffffffffff021916908373ffffffffffffffffffffffffffffffffffffffff16021790555060a082015181600401559050506005600360003373ffffffffffffffffffffffffffffffffffffffff1673ffffffffffffffffffffffffffffffffffffffff1681526020019081526020016000209080600181540180825580915050600190039060005260206000209060050201600090919091909150600082015481600001556001820160009054906101000a900460ff168160010160006101000a81548160ff0219169083151502179055506001820160019054906101000a900473ffffffffffffffffffffffffffffffffffffffff168160010160016101000a81548173ffffffffffffffffffffffffffffffffffffffff021916908373ffffffffffffffffffffffffffffffffffffffff160217905550600282015481600201556003820160009054906101000a900473ffffffffffffffffffffffffffffffffffffffff168160030160006101000a81548173ffffffffffffffffffffffffffffffffffffffff021916908373ffffffffffffffffffffffffffffffffffffffff16021790555060048201548160040155505034600160008282540192505081905550600160026000828254019250508190555050565b6000600461176261101f565b8154811061176c57fe5b906000526020600020906003020160000154905090565b6005818154811061179357600080fd5b90600052602060002090600502016000915090508060000154908060010160009054906101000a900460ff16908060010160019054906101000a900473ffffffffffffffffffffffffffffffffffffffff16908060020154908060030160009054906101000a900473ffffffffffffffffffffffffffffffffffffffff16908060040154905086565b508054600082556003029060005260206000209081019061183d9190611840565b50565b5b8082111561188a5760008082016000905560018201600090556002820160006101000a81549073ffffffffffffffffffffffffffffffffffffffff021916905550600301611841565b509056fe4f6e6c79206368616972706572736f6e2063616e206769766520726967687420746f20766f74652ea26469706673582212204a2cc86761a72d80c0d23972f9b91d65a3a74fb4d62668d7a35c7b8cf808324964736f6c63430007060033",
  "immutableReferences": {},
  "source": "pragma solidity >=0.7.0 <0.9.0;\n\ncontract Dao {\n    struct Member {\n        uint256 weight;\n        bool voted;\n        address delegate;\n        uint256 vote;\n        address member;\n        uint256 location;\n    }\n\n    struct Proposal {\n        bytes32 name;\n        uint256 voteCount;\n        address reciever;\n    }\n\n    address public chairperson;\n    uint256 public balance;\n    uint256 public numberOfMembers;\n\n    mapping(address => Member) public members;\n\n    Proposal[] public proposals;\n    Member[] public members_list;\n\n    constructor(bytes32[] memory proposalNames) {\n        chairperson = msg.sender;\n        Member memory chairpersonStruct = Member(\n            1,\n            false,\n            address(0),\n            0,\n            msg.sender,\n            0\n        );\n        members[chairperson] = chairpersonStruct;\n        members_list.push(members[chairperson]);\n\n        for (uint256 i = 0; i < proposalNames.length; i++) {\n            proposals.push(\n                Proposal({\n                    name: proposalNames[i],\n                    voteCount: 0,\n                    reciever: msg.sender\n                })\n            );\n        }\n        numberOfMembers = 1;\n    }\n\n    function joinDao() public payable {\n        require(msg.value >= 200, \"correctAmountNotDeposited\");\n        Member memory newMember = Member(\n            0,\n            false,\n            address(0),\n            0,\n            msg.sender,\n            numberOfMembers\n        );\n        members[msg.sender] = newMember;\n        members_list.push(members[msg.sender]);\n        balance += msg.value;\n        numberOfMembers += 1;\n    }\n\n    function giveRightToVote(address member) external {\n        require(\n            msg.sender == chairperson,\n            \"Only chairperson can give right to vote.\"\n        );\n        require(!members[member].voted, \"The member has already voted.\");\n        require(members[member].weight == 0);\n        require(members[member].location != 0);\n        members[member].weight = 1;\n    }\n\n    function getMembers() public view returns (address[] memory) {\n        address[] memory _members_list = new address[](numberOfMembers);\n        for (uint256 i = 0; i < members_list.length; i++) {\n            _members_list[i] = members_list[i].member;\n        }\n        return _members_list;\n    }\n\n    function delegate(address to) external {\n        Member storage sender = members[msg.sender];\n        require(!sender.voted, \"You already Voted!\");\n        require(to != msg.sender, \"Self Delegation Disallowed\");\n\n        while (members[to].delegate != address(0)) {\n            to = members[to].delegate;\n            require(to != msg.sender, \"Found loop in delegation\");\n        }\n\n        sender.voted = true;\n        sender.delegate = to;\n        Member storage delegate_ = members[to];\n\n        if (delegate_.voted) {\n            proposals[delegate_.vote].voteCount += sender.weight;\n        } else {\n            delegate_.weight += sender.weight;\n        }\n    }\n\n    function vote(uint256 proposal) external {\n        Member storage sender = members[msg.sender];\n        require(sender.weight != 0, \"No right to vote\");\n        require(!sender.voted, \"Already Voted\");\n\n        sender.voted = true;\n        sender.vote = proposal;\n        proposals[proposal].voteCount += sender.weight;\n    }\n\n    function winingProposal() public view returns (uint256 winingProposal_) {\n        uint256 winingVoteCount = 0;\n        for (uint256 i = 0; i < proposals.length; i++) {\n            winingVoteCount = proposals[i].voteCount;\n            winingProposal_ = i;\n        }\n    }\n\n    function winnerName() external view returns (bytes32 winnerName_) {\n        winnerName_ = proposals[winingProposal()].name;\n    }\n\n    function newProposal(bytes32[] memory proposalNames) public {\n        require(chairperson == msg.sender);\n\n        members[chairperson].weight = 1;\n        delete proposals;\n\n        for (uint256 i = 0; i < proposalNames.length; i++) {\n            proposals.push(\n                Proposal({\n                    name: proposalNames[i],\n                    voteCount: 0,\n                    reciever: msg.sender\n                })\n            );\n        }\n\n        for (uint256 i = 0; i < members_list.length; i++) {\n            members_list[i].weight = 1;\n            members[members_list[i].member] = members_list[i];\n        }\n    }\n}\n",
  "sourcePath": "/Users/anilrajthota/Desktop/quick tutorial smart contract sample/contracts/Dao.sol",
  "compiler": {
    "name": "solc",
    "version": "0.7.6+commit.7338295f.Emscripten.clang"
  },
  "schemaVersion": "3.4.4",
  "updatedAt": "2022-01-28T20:50:41.286Z",
  "networkType": "ethereum",
  "devdoc": {
    "kind": "dev",
    "methods": {},
    "version": 1
  },
  "userdoc": {
    "kind": "user",
    "methods": {},
    "version": 1
  }
}